{
  "contractName": "Keep",
  "abi": [
    {
      "constant": true,
      "inputs": [
        {
          "name": "",
          "type": "address"
        }
      ],
      "name": "balanceOf",
      "outputs": [
        {
          "name": "",
          "type": "uint256"
        }
      ],
      "payable": false,
      "stateMutability": "view",
      "type": "function"
    },
    {
      "constant": true,
      "inputs": [],
      "name": "owner",
      "outputs": [
        {
          "name": "",
          "type": "address"
        }
      ],
      "payable": false,
      "stateMutability": "view",
      "type": "function"
    },
    {
      "constant": true,
      "inputs": [],
      "name": "price",
      "outputs": [
        {
          "name": "",
          "type": "uint256"
        }
      ],
      "payable": false,
      "stateMutability": "view",
      "type": "function"
    },
    {
      "constant": true,
      "inputs": [],
      "name": "message",
      "outputs": [
        {
          "name": "",
          "type": "bytes"
        }
      ],
      "payable": false,
      "stateMutability": "view",
      "type": "function"
    },
    {
      "constant": true,
      "inputs": [],
      "name": "chatToken",
      "outputs": [
        {
          "name": "",
          "type": "address"
        }
      ],
      "payable": false,
      "stateMutability": "view",
      "type": "function"
    },
    {
      "inputs": [
        {
          "name": "addressOfToken",
          "type": "address"
        }
      ],
      "payable": false,
      "stateMutability": "nonpayable",
      "type": "constructor"
    },
    {
      "anonymous": false,
      "inputs": [
        {
          "indexed": true,
          "name": "sender",
          "type": "address"
        },
        {
          "indexed": false,
          "name": "message",
          "type": "bytes"
        },
        {
          "indexed": false,
          "name": "gas",
          "type": "uint256"
        }
      ],
      "name": "MessageStored",
      "type": "event"
    },
    {
      "constant": false,
      "inputs": [
        {
          "name": "_message",
          "type": "string"
        }
      ],
      "name": "keepMessage",
      "outputs": [
        {
          "name": "",
          "type": "uint256"
        }
      ],
      "payable": false,
      "stateMutability": "nonpayable",
      "type": "function"
    }
  ],
  "bytecode": "0x608060405234801561001057600080fd5b5060405160208061065f83398101806040528101908080519060200190929190505050336000806101000a81548173ffffffffffffffffffffffffffffffffffffffff021916908373ffffffffffffffffffffffffffffffffffffffff16021790555080600260006101000a81548173ffffffffffffffffffffffffffffffffffffffff021916908373ffffffffffffffffffffffffffffffffffffffff160217905550670de0b6b3a76400006003819055505061058c806100d36000396000f300608060405260043610610078576000357c0100000000000000000000000000000000000000000000000000000000900463ffffffff16806370a082311461007d5780638da5cb5b146100d4578063a035b1fe1461012b578063b22f6cb914610156578063e21f37ce146101d3578063ea071a7414610263575b600080fd5b34801561008957600080fd5b506100be600480360381019080803573ffffffffffffffffffffffffffffffffffffffff1690602001909291905050506102ba565b6040518082815260200191505060405180910390f35b3480156100e057600080fd5b506100e96102d2565b604051808273ffffffffffffffffffffffffffffffffffffffff1673ffffffffffffffffffffffffffffffffffffffff16815260200191505060405180910390f35b34801561013757600080fd5b506101406102f7565b6040518082815260200191505060405180910390f35b34801561016257600080fd5b506101bd600480360381019080803590602001908201803590602001908080601f01602080910402602001604051908101604052809392919081815260200183838082843782019150505050505091929192905050506102fd565b6040518082815260200191505060405180910390f35b3480156101df57600080fd5b506101e86103f7565b6040518080602001828103825283818151815260200191508051906020019080838360005b8381101561022857808201518184015260208101905061020d565b50505050905090810190601f1680156102555780820380516001836020036101000a031916815260200191505b509250505060405180910390f35b34801561026f57600080fd5b50610278610495565b604051808273ffffffffffffffffffffffffffffffffffffffff1673ffffffffffffffffffffffffffffffffffffffff16815260200191505060405180910390f35b60046020528060005260406000206000915090505481565b6000809054906101000a900473ffffffffffffffffffffffffffffffffffffffff1681565b60035481565b600081600190805190602001906103159291906104bb565b503373ffffffffffffffffffffffffffffffffffffffff167f5238e0d5198a79b20ee9a399c18dada60b7453ac6f06b6c7f0fe459ab9a5011260013a60405180806020018381526020018281038252848181546001816001161561010002031660029004815260200191508054600181600116156101000203166002900480156103e05780601f106103b5576101008083540402835291602001916103e0565b820191906000526020600020905b8154815290600101906020018083116103c357829003601f168201915b5050935050505060405180910390a2439050919050565b60018054600181600116156101000203166002900480601f01602080910402602001604051908101604052809291908181526020018280546001816001161561010002031660029004801561048d5780601f106104625761010080835404028352916020019161048d565b820191906000526020600020905b81548152906001019060200180831161047057829003601f168201915b505050505081565b600260009054906101000a900473ffffffffffffffffffffffffffffffffffffffff1681565b828054600181600116156101000203166002900490600052602060002090601f016020900481019282601f106104fc57805160ff191683800117855561052a565b8280016001018555821561052a579182015b8281111561052957825182559160200191906001019061050e565b5b509050610537919061053b565b5090565b61055d91905b80821115610559576000816000905550600101610541565b5090565b905600a165627a7a723058204ad5ad48f3ca2115aa461e54df10fdc3e258c60a8f8bb2639ddf4d40393bc9ee0029",
  "source": "pragma solidity ^0.4.24; // ^0.4.18\n\ninterface token {\n    function transfer(address _to, uint256 _amount) external;\n}\n\ncontract Keep {\n\n    address public owner;\n    bytes public message;\n\n    token public chatToken;\n    uint public price;\n\n    mapping (address => uint) public balanceOf;\n\n    event MessageStored(address indexed sender, bytes message, uint gas);\n\n    /*\n    modifier hasEnoughCoin(address _sender, uint256 cost) {\n        require(balanceOf[_sender] >= cost);\n        _;\n    }\n    */\n\n    constructor\n    // function Keep\n        (address addressOfToken) public {\n        owner = msg.sender;\n        // message = _message;\n        chatToken = token(addressOfToken);\n        price = 1 ether;\n    }\n\n    /*\n    function () payable public {\n        require(balanceOf[msg.sender] >= 0);\n        // address receiver = msg.to;\n        // uint256 amount = msg.value;\n        // bytes storage data = msg.data;\n        // uint256 gas = tx.gasprice;\n        message = bytes(msg.data);\n\n        emit MessageStored(msg.sender, msg.data, tx.gasprice);\n    }\n    */\n    \n    function keepMessage(string _message) public returns (uint) {\n        message = bytes(_message);\n        emit MessageStored(msg.sender, message, tx.gasprice);\n        return block.number;\n    }\n}",
  "sourcePath": "/Users/rapsealk/Desktop/git/TIL/blockchain/ethereum/dtalks/truffle/contracts/Keep.sol",
  "compiler": {
    "name": "solc",
    "version": "0.4.24+commit.e67f0147.Emscripten.clang"
  },
  "schemaVersion": "2.0.0",
  "updatedAt": "2018-06-23T08:44:45.827Z"
}