{
  "contractName": "Keep",
  "abi": [
    {
      "constant": true,
      "inputs": [
        {
          "name": "",
          "type": "address"
        },
        {
          "name": "",
          "type": "uint256"
        }
      ],
      "name": "history",
      "outputs": [
        {
          "name": "",
          "type": "bytes32"
        }
      ],
      "payable": false,
      "stateMutability": "view",
      "type": "function"
    },
    {
      "constant": true,
      "inputs": [],
      "name": "owner",
      "outputs": [
        {
          "name": "",
          "type": "address"
        }
      ],
      "payable": false,
      "stateMutability": "view",
      "type": "function"
    },
    {
      "constant": true,
      "inputs": [],
      "name": "price",
      "outputs": [
        {
          "name": "",
          "type": "uint256"
        }
      ],
      "payable": false,
      "stateMutability": "view",
      "type": "function"
    },
    {
      "constant": true,
      "inputs": [],
      "name": "message",
      "outputs": [
        {
          "name": "",
          "type": "bytes"
        }
      ],
      "payable": false,
      "stateMutability": "view",
      "type": "function"
    },
    {
      "constant": true,
      "inputs": [],
      "name": "chatToken",
      "outputs": [
        {
          "name": "",
          "type": "address"
        }
      ],
      "payable": false,
      "stateMutability": "view",
      "type": "function"
    },
    {
      "inputs": [
        {
          "name": "addressOfToken",
          "type": "address"
        }
      ],
      "payable": false,
      "stateMutability": "nonpayable",
      "type": "constructor"
    },
    {
      "anonymous": false,
      "inputs": [
        {
          "indexed": true,
          "name": "sender",
          "type": "address"
        },
        {
          "indexed": false,
          "name": "message",
          "type": "bytes"
        },
        {
          "indexed": false,
          "name": "gas",
          "type": "uint256"
        }
      ],
      "name": "MessageStored",
      "type": "event"
    },
    {
      "constant": false,
      "inputs": [
        {
          "name": "_message",
          "type": "string"
        }
      ],
      "name": "keepMessage",
      "outputs": [
        {
          "name": "",
          "type": "uint256"
        }
      ],
      "payable": false,
      "stateMutability": "nonpayable",
      "type": "function"
    },
    {
      "constant": true,
      "inputs": [],
      "name": "getHistory",
      "outputs": [
        {
          "name": "",
          "type": "bytes32[]"
        }
      ],
      "payable": false,
      "stateMutability": "view",
      "type": "function"
    }
  ],
  "bytecode": "0x608060405234801561001057600080fd5b5060405160208061080983398101806040528101908080519060200190929190505050336000806101000a81548173ffffffffffffffffffffffffffffffffffffffff021916908373ffffffffffffffffffffffffffffffffffffffff16021790555080600260006101000a81548173ffffffffffffffffffffffffffffffffffffffff021916908373ffffffffffffffffffffffffffffffffffffffff160217905550670de0b6b3a764000060038190555050610736806100d36000396000f300608060405260043610610083576000357c0100000000000000000000000000000000000000000000000000000000900463ffffffff1680637718f4ec146100885780638da5cb5b146100f1578063a035b1fe14610148578063aa15efc814610173578063b22f6cb9146101df578063e21f37ce1461025c578063ea071a74146102ec575b600080fd5b34801561009457600080fd5b506100d3600480360381019080803573ffffffffffffffffffffffffffffffffffffffff16906020019092919080359060200190929190505050610343565b60405180826000191660001916815260200191505060405180910390f35b3480156100fd57600080fd5b50610106610373565b604051808273ffffffffffffffffffffffffffffffffffffffff1673ffffffffffffffffffffffffffffffffffffffff16815260200191505060405180910390f35b34801561015457600080fd5b5061015d610398565b6040518082815260200191505060405180910390f35b34801561017f57600080fd5b5061018861039e565b6040518080602001828103825283818151815260200191508051906020019060200280838360005b838110156101cb5780820151818401526020810190506101b0565b505050509050019250505060405180910390f35b3480156101eb57600080fd5b50610246600480360381019080803590602001908201803590602001908080601f0160208091040260200160405190810160405280939291908181526020018383808284378201915050505050509192919290505050610437565b6040518082815260200191505060405180910390f35b34801561026857600080fd5b506102716105a1565b6040518080602001828103825283818151815260200191508051906020019080838360005b838110156102b1578082015181840152602081019050610296565b50505050905090810190601f1680156102de5780820380516001836020036101000a031916815260200191505b509250505060405180910390f35b3480156102f857600080fd5b5061030161063f565b604051808273ffffffffffffffffffffffffffffffffffffffff1673ffffffffffffffffffffffffffffffffffffffff16815260200191505060405180910390f35b60046020528160005260406000208181548110151561035e57fe5b90600052602060002001600091509150505481565b6000809054906101000a900473ffffffffffffffffffffffffffffffffffffffff1681565b60035481565b6060600460003373ffffffffffffffffffffffffffffffffffffffff1673ffffffffffffffffffffffffffffffffffffffff16815260200190815260200160002080548060200260200160405190810160405280929190818152602001828054801561042d57602002820191906000526020600020905b81546000191681526020019060010190808311610415575b5050505050905090565b6000816001908051906020019061044f929190610665565b50600460003373ffffffffffffffffffffffffffffffffffffffff1673ffffffffffffffffffffffffffffffffffffffff168152602001908152602001600020434090806001815401808255809150509060018203906000526020600020016000909192909190915090600019169055503373ffffffffffffffffffffffffffffffffffffffff167f5238e0d5198a79b20ee9a399c18dada60b7453ac6f06b6c7f0fe459ab9a5011260013a604051808060200183815260200182810382528481815460018160011615610100020316600290048152602001915080546001816001161561010002031660029004801561058a5780601f1061055f5761010080835404028352916020019161058a565b820191906000526020600020905b81548152906001019060200180831161056d57829003601f168201915b5050935050505060405180910390a2439050919050565b60018054600181600116156101000203166002900480601f0160208091040260200160405190810160405280929190818152602001828054600181600116156101000203166002900480156106375780601f1061060c57610100808354040283529160200191610637565b820191906000526020600020905b81548152906001019060200180831161061a57829003601f168201915b505050505081565b600260009054906101000a900473ffffffffffffffffffffffffffffffffffffffff1681565b828054600181600116156101000203166002900490600052602060002090601f016020900481019282601f106106a657805160ff19168380011785556106d4565b828001600101855582156106d4579182015b828111156106d35782518255916020019190600101906106b8565b5b5090506106e191906106e5565b5090565b61070791905b808211156107035760008160009055506001016106eb565b5090565b905600a165627a7a72305820cdd2acf5c19a09151198960691432998e2b07fc325933eb0e8d50b1f9dd860660029",
  "source": "pragma solidity ^0.4.18;\n\ninterface token {\n    function transfer(address _to, uint256 _amount) external;\n}\n\ncontract Keep {\n\n    address public owner;\n    bytes public message;\n\n    token public chatToken;\n    uint public price;\n\n    mapping (address => bytes32[]) public history;\n\n    event MessageStored(address indexed sender, bytes message, uint gas);\n\n    constructor\n    // function Keep\n        (address addressOfToken) public {\n        owner = msg.sender;\n        // message = _message;\n        chatToken = token(addressOfToken);\n        price = 1 ether;\n    }\n    \n    function keepMessage(string _message) public returns (uint) {\n        message = bytes(_message);\n        history[msg.sender].push(block.blockhash(block.number));\n        emit MessageStored(msg.sender, message, tx.gasprice);\n        return block.number;\n    }\n\n    function getHistory() public view returns (bytes32[]) {\n        return history[msg.sender];\n    }\n}",
  "sourcePath": "/Users/rapsealk/Desktop/git/TIL/blockchain/ethereum/dtalks/truffle/contracts/Keep.sol",
  "compiler": {
    "name": "solc",
    "version": "0.4.24+commit.e67f0147.Emscripten.clang"
  },
  "schemaVersion": "2.0.0",
  "updatedAt": "2018-06-25T04:23:00.555Z"
}