{
  "contractName": "Provision",
  "abi": [
    {
      "constant": true,
      "inputs": [],
      "name": "beneficiary",
      "outputs": [
        {
          "name": "",
          "type": "address"
        }
      ],
      "payable": false,
      "stateMutability": "view",
      "type": "function"
    },
    {
      "constant": true,
      "inputs": [],
      "name": "tokenReward",
      "outputs": [
        {
          "name": "",
          "type": "address"
        }
      ],
      "payable": false,
      "stateMutability": "view",
      "type": "function"
    },
    {
      "constant": true,
      "inputs": [
        {
          "name": "",
          "type": "address"
        }
      ],
      "name": "balanceOf",
      "outputs": [
        {
          "name": "",
          "type": "uint256"
        }
      ],
      "payable": false,
      "stateMutability": "view",
      "type": "function"
    },
    {
      "constant": true,
      "inputs": [],
      "name": "price",
      "outputs": [
        {
          "name": "",
          "type": "uint256"
        }
      ],
      "payable": false,
      "stateMutability": "view",
      "type": "function"
    },
    {
      "inputs": [
        {
          "name": "ifSuccessfulSendTo",
          "type": "address"
        },
        {
          "name": "etherCostOfEachToken",
          "type": "uint256"
        },
        {
          "name": "addressOfTokenUsedAsReward",
          "type": "address"
        }
      ],
      "payable": false,
      "stateMutability": "nonpayable",
      "type": "constructor"
    },
    {
      "payable": true,
      "stateMutability": "payable",
      "type": "fallback"
    }
  ],
  "bytecode": "0x608060405234801561001057600080fd5b50604051606080610489833981018060405281019080805190602001909291908051906020019092919080519060200190929190505050826000806101000a81548173ffffffffffffffffffffffffffffffffffffffff021916908373ffffffffffffffffffffffffffffffffffffffff1602179055508160018190555080600260006101000a81548173ffffffffffffffffffffffffffffffffffffffff021916908373ffffffffffffffffffffffffffffffffffffffff1602179055505050506103a8806100e16000396000f300608060405260043610610062576000357c0100000000000000000000000000000000000000000000000000000000900463ffffffff16806338af3eed146101e35780636e66f6e91461023a57806370a0823114610291578063a035b1fe146102e8575b600034905080600360008060009054906101000a900473ffffffffffffffffffffffffffffffffffffffff1673ffffffffffffffffffffffffffffffffffffffff1673ffffffffffffffffffffffffffffffffffffffff16815260200190815260200160002060008282540192505081905550600260009054906101000a900473ffffffffffffffffffffffffffffffffffffffff1673ffffffffffffffffffffffffffffffffffffffff1663a9059cbb6000809054906101000a900473ffffffffffffffffffffffffffffffffffffffff166001548481151561014257fe5b046040518363ffffffff167c0100000000000000000000000000000000000000000000000000000000028152600401808373ffffffffffffffffffffffffffffffffffffffff1673ffffffffffffffffffffffffffffffffffffffff16815260200182815260200192505050600060405180830381600087803b1580156101c857600080fd5b505af11580156101dc573d6000803e3d6000fd5b5050505050005b3480156101ef57600080fd5b506101f8610313565b604051808273ffffffffffffffffffffffffffffffffffffffff1673ffffffffffffffffffffffffffffffffffffffff16815260200191505060405180910390f35b34801561024657600080fd5b5061024f610338565b604051808273ffffffffffffffffffffffffffffffffffffffff1673ffffffffffffffffffffffffffffffffffffffff16815260200191505060405180910390f35b34801561029d57600080fd5b506102d2600480360381019080803573ffffffffffffffffffffffffffffffffffffffff16906020019092919050505061035e565b6040518082815260200191505060405180910390f35b3480156102f457600080fd5b506102fd610376565b6040518082815260200191505060405180910390f35b6000809054906101000a900473ffffffffffffffffffffffffffffffffffffffff1681565b600260009054906101000a900473ffffffffffffffffffffffffffffffffffffffff1681565b60036020528060005260406000206000915090505481565b600154815600a165627a7a7230582043868c8d2a347d80a3a829309333527a4f8f93ffeca80ac21e3b3fc4932913570029",
  "source": "pragma solidity ^0.4.23;\n\ninterface token {\n    function transfer(address receiver, uint amount) external;\n}\n\ncontract Provision {\n\n    address public beneficiary;\n    uint public price;\n    token public tokenReward;\n    mapping (address => uint256) public balanceOf;\n\n    constructor(\n        address ifSuccessfulSendTo,\n        uint etherCostOfEachToken,\n        address addressOfTokenUsedAsReward\n    ) public {\n        beneficiary = ifSuccessfulSendTo;\n        price = etherCostOfEachToken;\n        tokenReward = token(addressOfTokenUsedAsReward);\n    }\n\n    function () payable external {\n        uint amount = msg.value;\n        balanceOf[beneficiary] += amount;\n        tokenReward.transfer(beneficiary, amount / price);\n    }\n}",
  "sourcePath": "/Users/rapsealk/Desktop/git/TIL/blockchain/ethereum/dtalks/truffle/contracts/Provision.sol",
  "compiler": {
    "name": "solc",
    "version": "0.4.24+commit.e67f0147.Emscripten.clang"
  },
  "schemaVersion": "2.0.0",
  "updatedAt": "2018-06-22T04:22:25.597Z"
}