{
  "contractName": "Sending",
  "abi": [
    {
      "constant": true,
      "inputs": [],
      "name": "owner",
      "outputs": [
        {
          "name": "",
          "type": "address"
        }
      ],
      "payable": false,
      "stateMutability": "view",
      "type": "function"
    },
    {
      "inputs": [],
      "payable": false,
      "stateMutability": "nonpayable",
      "type": "constructor"
    },
    {
      "constant": false,
      "inputs": [
        {
          "name": "_message",
          "type": "string"
        }
      ],
      "name": "sendMessage",
      "outputs": [
        {
          "name": "",
          "type": "bytes32"
        }
      ],
      "payable": false,
      "stateMutability": "nonpayable",
      "type": "function"
    }
  ],
  "bytecode": "0x608060405234801561001057600080fd5b50336000806101000a81548173ffffffffffffffffffffffffffffffffffffffff021916908373ffffffffffffffffffffffffffffffffffffffff160217905550610406806100606000396000f30060806040526004361061004c576000357c0100000000000000000000000000000000000000000000000000000000900463ffffffff168063469c8110146100515780638da5cb5b146100d6575b600080fd5b34801561005d57600080fd5b506100b8600480360381019080803590602001908201803590602001908080601f016020809104026020016040519081016040528093929190818152602001838380828437820191505050505050919291929050505061012d565b60405180826000191660001916815260200191505060405180910390f35b3480156100e257600080fd5b506100eb610310565b604051808273ffffffffffffffffffffffffffffffffffffffff1673ffffffffffffffffffffffffffffffffffffffff16815260200191505060405180910390f35b6000806000835111151561014057600080fd5b423384604051602001808481526020018373ffffffffffffffffffffffffffffffffffffffff1673ffffffffffffffffffffffffffffffffffffffff166c0100000000000000000000000002815260140182805190602001908083835b6020831015156101c2578051825260208201915060208101905060208303925061019d565b6001836020036101000a03801982511681845116808217855250505050505090500193505050506040516020818303038152906040526040518082805190602001908083835b60208310151561022d5780518252602082019150602081019050602083039250610208565b6001836020036101000a038019825116818451168082178552505050505050905001915050604051809103902090506000809054906101000a900473ffffffffffffffffffffffffffffffffffffffff1660026000836000191660001916815260200190815260200160002060006101000a81548173ffffffffffffffffffffffffffffffffffffffff021916908373ffffffffffffffffffffffffffffffffffffffff160217905550826001600083600019166000191681526020019081526020016000209080519060200190610306929190610335565b5080915050919050565b6000809054906101000a900473ffffffffffffffffffffffffffffffffffffffff1681565b828054600181600116156101000203166002900490600052602060002090601f016020900481019282601f1061037657805160ff19168380011785556103a4565b828001600101855582156103a4579182015b828111156103a3578251825591602001919060010190610388565b5b5090506103b191906103b5565b5090565b6103d791905b808211156103d35760008160009055506001016103bb565b5090565b905600a165627a7a723058201ad5b1c7570665b226fd57573973b9810ddbca3a7cb18f9db5f647cf1fa2ad2b0029",
  "source": "pragma solidity ^0.4.23;\r\n\r\ncontract Sending {\r\n\r\n    address public owner;\r\n\r\n    // bytes32 == uint256\r\n    mapping (bytes32 => string) messages;\r\n    mapping (bytes32 => address) ownerByHash;\r\n\r\n    constructor() public {\r\n        owner = msg.sender;\r\n    }\r\n\r\n    function sendMessage(string _message) public returns (bytes32) {\r\n        require(bytes(_message).length > 0);\r\n\r\n/*\r\n        bytes memory b = new bytes(20);\r\n        for (uint8 i = 0; i < 20; i++) b[i] = byte(uint8(uint(owner) / (2 ** (8 * (19 - i)))));\r\n        string storage stringified = string(b);\r\n\r\n        bytes32 txHash = keccak256(stringified + _message);\r\n*/\r\n        bytes32 txHash = keccak256(abi.encodePacked(block.timestamp, msg.sender, _message));\r\n        // bytes32 txHash = keccak256(block.timestamp, msg.sender, _message);\r\n        ownerByHash[txHash] = owner;\r\n        messages[txHash] = _message;\r\n\r\n        // return _message;\r\n        return txHash;\r\n    }\r\n/*\r\n    function addressToString(address _address) private returns (string) {\r\n        bytes memory b = new bytes(20);\r\n        for (uint i = 0; i < 20; i++) b[i] = byte(uint8(uint(_address) / (2 ** (8 * (19 - i)))));\r\n        return string(b);\r\n    }\r\n*/\r\n}",
  "sourcePath": "C:\\Users\\sonagi623\\Desktop\\git\\TIL\\blockchain\\ethereum\\dtalks\\contracts\\Sending.sol",
  "compiler": {
    "name": "solc",
    "version": "0.4.24+commit.e67f0147.Emscripten.clang"
  },
  "schemaVersion": "2.0.0",
  "updatedAt": "2018-06-04T17:02:35.326Z"
}